{
  "_format": "hh-sol-artifact-1",
  "contractName": "DepositContract",
  "sourceName": "contracts/DepositContract.sol",
  "abi": [
    {
      "inputs": [
        {
          "internalType": "address",
          "name": "_erc20Token",
          "type": "address"
        },
        {
          "internalType": "address",
          "name": "_erc721Token",
          "type": "address"
        }
      ],
      "stateMutability": "nonpayable",
      "type": "constructor"
    },
    {
      "inputs": [
        {
          "internalType": "address",
          "name": "owner",
          "type": "address"
        }
      ],
      "name": "OwnableInvalidOwner",
      "type": "error"
    },
    {
      "inputs": [
        {
          "internalType": "address",
          "name": "account",
          "type": "address"
        }
      ],
      "name": "OwnableUnauthorizedAccount",
      "type": "error"
    },
    {
      "anonymous": false,
      "inputs": [
        {
          "indexed": true,
          "internalType": "address",
          "name": "previousOwner",
          "type": "address"
        },
        {
          "indexed": true,
          "internalType": "address",
          "name": "newOwner",
          "type": "address"
        }
      ],
      "name": "OwnershipTransferred",
      "type": "event"
    },
    {
      "inputs": [
        {
          "internalType": "uint256",
          "name": "amount",
          "type": "uint256"
        }
      ],
      "name": "deposit",
      "outputs": [],
      "stateMutability": "nonpayable",
      "type": "function"
    },
    {
      "inputs": [
        {
          "internalType": "address",
          "name": "",
          "type": "address"
        }
      ],
      "name": "deposits",
      "outputs": [
        {
          "internalType": "uint256",
          "name": "",
          "type": "uint256"
        }
      ],
      "stateMutability": "view",
      "type": "function"
    },
    {
      "inputs": [],
      "name": "erc20Token",
      "outputs": [
        {
          "internalType": "contract IERC20",
          "name": "",
          "type": "address"
        }
      ],
      "stateMutability": "view",
      "type": "function"
    },
    {
      "inputs": [],
      "name": "erc721Token",
      "outputs": [
        {
          "internalType": "contract MyNFT",
          "name": "",
          "type": "address"
        }
      ],
      "stateMutability": "view",
      "type": "function"
    },
    {
      "inputs": [],
      "name": "owner",
      "outputs": [
        {
          "internalType": "address",
          "name": "",
          "type": "address"
        }
      ],
      "stateMutability": "view",
      "type": "function"
    },
    {
      "inputs": [],
      "name": "renounceOwnership",
      "outputs": [],
      "stateMutability": "nonpayable",
      "type": "function"
    },
    {
      "inputs": [
        {
          "internalType": "address",
          "name": "",
          "type": "address"
        }
      ],
      "name": "totalDeposits",
      "outputs": [
        {
          "internalType": "uint256",
          "name": "",
          "type": "uint256"
        }
      ],
      "stateMutability": "view",
      "type": "function"
    },
    {
      "inputs": [
        {
          "internalType": "address",
          "name": "newOwner",
          "type": "address"
        }
      ],
      "name": "transferOwnership",
      "outputs": [],
      "stateMutability": "nonpayable",
      "type": "function"
    },
    {
      "inputs": [],
      "name": "viewAmmount",
      "outputs": [
        {
          "internalType": "uint256",
          "name": "",
          "type": "uint256"
        }
      ],
      "stateMutability": "view",
      "type": "function"
    }
  ],
  "bytecode": "0x60806040523480156200001157600080fd5b5060405162000f0838038062000f08833981810160405281019062000037919062000277565b33600073ffffffffffffffffffffffffffffffffffffffff168173ffffffffffffffffffffffffffffffffffffffff1603620000ad5760006040517f1e4fbdf7000000000000000000000000000000000000000000000000000000008152600401620000a49190620002cf565b60405180910390fd5b620000be816200014960201b60201c565b5081600160006101000a81548173ffffffffffffffffffffffffffffffffffffffff021916908373ffffffffffffffffffffffffffffffffffffffff16021790555080600260006101000a81548173ffffffffffffffffffffffffffffffffffffffff021916908373ffffffffffffffffffffffffffffffffffffffff1602179055505050620002ec565b60008060009054906101000a900473ffffffffffffffffffffffffffffffffffffffff169050816000806101000a81548173ffffffffffffffffffffffffffffffffffffffff021916908373ffffffffffffffffffffffffffffffffffffffff1602179055508173ffffffffffffffffffffffffffffffffffffffff168173ffffffffffffffffffffffffffffffffffffffff167f8be0079c531659141344cd1fd0a4f28419497f9722a3daafe3b4186f6b6457e060405160405180910390a35050565b600080fd5b600073ffffffffffffffffffffffffffffffffffffffff82169050919050565b60006200023f8262000212565b9050919050565b620002518162000232565b81146200025d57600080fd5b50565b600081519050620002718162000246565b92915050565b600080604083850312156200029157620002906200020d565b5b6000620002a18582860162000260565b9250506020620002b48582860162000260565b9150509250929050565b620002c98162000232565b82525050565b6000602082019050620002e66000830184620002be565b92915050565b610c0c80620002fc6000396000f3fe608060405234801561001057600080fd5b50600436106100935760003560e01c8063b6b55f2511610066578063b6b55f25146100fc578063bbdefffc14610118578063e940325614610136578063f2fde38b14610166578063fc7e286d1461018257610093565b80635f2d6bcd14610098578063715018a6146100b65780638a13eea7146100c05780638da5cb5b146100de575b600080fd5b6100a06101b2565b6040516100ad9190610866565b60405180910390f35b6100be6101d8565b005b6100c86101ec565b6040516100d591906108a2565b60405180910390f35b6100e6610212565b6040516100f391906108de565b60405180910390f35b61011660048036038101906101119190610934565b61023b565b005b610120610546565b60405161012d9190610970565b60405180910390f35b610150600480360381019061014b91906109b7565b6105de565b60405161015d9190610970565b60405180910390f35b610180600480360381019061017b91906109b7565b6105f6565b005b61019c600480360381019061019791906109b7565b61067c565b6040516101a99190610970565b60405180910390f35b600260009054906101000a900473ffffffffffffffffffffffffffffffffffffffff1681565b6101e0610694565b6101ea600061071b565b565b600160009054906101000a900473ffffffffffffffffffffffffffffffffffffffff1681565b60008060009054906101000a900473ffffffffffffffffffffffffffffffffffffffff16905090565b6000811161027e576040517f08c379a000000000000000000000000000000000000000000000000000000000815260040161027590610a41565b60405180910390fd5b600160009054906101000a900473ffffffffffffffffffffffffffffffffffffffff1673ffffffffffffffffffffffffffffffffffffffff166323b872dd3330846040518463ffffffff1660e01b81526004016102dd93929190610a61565b6020604051808303816000875af11580156102fc573d6000803e3d6000fd5b505050506040513d601f19601f820116820180604052508101906103209190610ad0565b5080600460003373ffffffffffffffffffffffffffffffffffffffff1673ffffffffffffffffffffffffffffffffffffffff16815260200190815260200160002060008282546103709190610b2c565b9250508190555080600360003373ffffffffffffffffffffffffffffffffffffffff1673ffffffffffffffffffffffffffffffffffffffff16815260200190815260200160002060008282546103c69190610b2c565b9250508190555069021e19e0c9bab2400000600360003373ffffffffffffffffffffffffffffffffffffffff1673ffffffffffffffffffffffffffffffffffffffff168152602001908152602001600020541061054357600260009054906101000a900473ffffffffffffffffffffffffffffffffffffffff1673ffffffffffffffffffffffffffffffffffffffff166354ba0f27336040518263ffffffff1660e01b815260040161047891906108de565b600060405180830381600087803b15801561049257600080fd5b505af11580156104a6573d6000803e3d6000fd5b5050505069021e19e0c9bab2400000600360003373ffffffffffffffffffffffffffffffffffffffff1673ffffffffffffffffffffffffffffffffffffffff168152602001908152602001600020546104ff9190610b60565b600360003373ffffffffffffffffffffffffffffffffffffffff1673ffffffffffffffffffffffffffffffffffffffff168152602001908152602001600020819055505b50565b6000600160009054906101000a900473ffffffffffffffffffffffffffffffffffffffff1673ffffffffffffffffffffffffffffffffffffffff166318160ddd6040518163ffffffff1660e01b8152600401602060405180830381865afa1580156105b5573d6000803e3d6000fd5b505050506040513d601f19601f820116820180604052508101906105d99190610ba9565b905090565b60046020528060005260406000206000915090505481565b6105fe610694565b600073ffffffffffffffffffffffffffffffffffffffff168173ffffffffffffffffffffffffffffffffffffffff16036106705760006040517f1e4fbdf700000000000000000000000000000000000000000000000000000000815260040161066791906108de565b60405180910390fd5b6106798161071b565b50565b60036020528060005260406000206000915090505481565b61069c6107df565b73ffffffffffffffffffffffffffffffffffffffff166106ba610212565b73ffffffffffffffffffffffffffffffffffffffff1614610719576106dd6107df565b6040517f118cdaa700000000000000000000000000000000000000000000000000000000815260040161071091906108de565b60405180910390fd5b565b60008060009054906101000a900473ffffffffffffffffffffffffffffffffffffffff169050816000806101000a81548173ffffffffffffffffffffffffffffffffffffffff021916908373ffffffffffffffffffffffffffffffffffffffff1602179055508173ffffffffffffffffffffffffffffffffffffffff168173ffffffffffffffffffffffffffffffffffffffff167f8be0079c531659141344cd1fd0a4f28419497f9722a3daafe3b4186f6b6457e060405160405180910390a35050565b600033905090565b600073ffffffffffffffffffffffffffffffffffffffff82169050919050565b6000819050919050565b600061082c610827610822846107e7565b610807565b6107e7565b9050919050565b600061083e82610811565b9050919050565b600061085082610833565b9050919050565b61086081610845565b82525050565b600060208201905061087b6000830184610857565b92915050565b600061088c82610833565b9050919050565b61089c81610881565b82525050565b60006020820190506108b76000830184610893565b92915050565b60006108c8826107e7565b9050919050565b6108d8816108bd565b82525050565b60006020820190506108f360008301846108cf565b92915050565b600080fd5b6000819050919050565b610911816108fe565b811461091c57600080fd5b50565b60008135905061092e81610908565b92915050565b60006020828403121561094a576109496108f9565b5b60006109588482850161091f565b91505092915050565b61096a816108fe565b82525050565b60006020820190506109856000830184610961565b92915050565b610994816108bd565b811461099f57600080fd5b50565b6000813590506109b18161098b565b92915050565b6000602082840312156109cd576109cc6108f9565b5b60006109db848285016109a2565b91505092915050565b600082825260208201905092915050565b7f416d6f756e74206d7573742062652067726561746572207468616e207a65726f600082015250565b6000610a2b6020836109e4565b9150610a36826109f5565b602082019050919050565b60006020820190508181036000830152610a5a81610a1e565b9050919050565b6000606082019050610a7660008301866108cf565b610a8360208301856108cf565b610a906040830184610961565b949350505050565b60008115159050919050565b610aad81610a98565b8114610ab857600080fd5b50565b600081519050610aca81610aa4565b92915050565b600060208284031215610ae657610ae56108f9565b5b6000610af484828501610abb565b91505092915050565b7f4e487b7100000000000000000000000000000000000000000000000000000000600052601160045260246000fd5b6000610b37826108fe565b9150610b42836108fe565b9250828201905080821115610b5a57610b59610afd565b5b92915050565b6000610b6b826108fe565b9150610b76836108fe565b9250828203905081811115610b8e57610b8d610afd565b5b92915050565b600081519050610ba381610908565b92915050565b600060208284031215610bbf57610bbe6108f9565b5b6000610bcd84828501610b94565b9150509291505056fea2646970667358221220f0e40597c8bbadeaeed8352a6a980be702e75a31f46d6a55987cf493e290e77c64736f6c63430008140033",
  "linkReferences": {},
  "deployedLinkReferences": {}
}