{
  "_format": "hh-sol-artifact-1",
  "contractName": "MyNFT",
  "sourceName": "contracts/MyNFT.sol",
  "abi": [
    {
      "inputs": [
        {
          "internalType": "string",
          "name": "name",
          "type": "string"
        },
        {
          "internalType": "string",
          "name": "symbol",
          "type": "string"
        }
      ],
      "stateMutability": "nonpayable",
      "type": "constructor"
    },
    {
      "inputs": [
        {
          "internalType": "address",
          "name": "sender",
          "type": "address"
        },
        {
          "internalType": "uint256",
          "name": "tokenId",
          "type": "uint256"
        },
        {
          "internalType": "address",
          "name": "owner",
          "type": "address"
        }
      ],
      "name": "ERC721IncorrectOwner",
      "type": "error"
    },
    {
      "inputs": [
        {
          "internalType": "address",
          "name": "operator",
          "type": "address"
        },
        {
          "internalType": "uint256",
          "name": "tokenId",
          "type": "uint256"
        }
      ],
      "name": "ERC721InsufficientApproval",
      "type": "error"
    },
    {
      "inputs": [
        {
          "internalType": "address",
          "name": "approver",
          "type": "address"
        }
      ],
      "name": "ERC721InvalidApprover",
      "type": "error"
    },
    {
      "inputs": [
        {
          "internalType": "address",
          "name": "operator",
          "type": "address"
        }
      ],
      "name": "ERC721InvalidOperator",
      "type": "error"
    },
    {
      "inputs": [
        {
          "internalType": "address",
          "name": "owner",
          "type": "address"
        }
      ],
      "name": "ERC721InvalidOwner",
      "type": "error"
    },
    {
      "inputs": [
        {
          "internalType": "address",
          "name": "receiver",
          "type": "address"
        }
      ],
      "name": "ERC721InvalidReceiver",
      "type": "error"
    },
    {
      "inputs": [
        {
          "internalType": "address",
          "name": "sender",
          "type": "address"
        }
      ],
      "name": "ERC721InvalidSender",
      "type": "error"
    },
    {
      "inputs": [
        {
          "internalType": "uint256",
          "name": "tokenId",
          "type": "uint256"
        }
      ],
      "name": "ERC721NonexistentToken",
      "type": "error"
    },
    {
      "inputs": [
        {
          "internalType": "address",
          "name": "owner",
          "type": "address"
        }
      ],
      "name": "OwnableInvalidOwner",
      "type": "error"
    },
    {
      "inputs": [
        {
          "internalType": "address",
          "name": "account",
          "type": "address"
        }
      ],
      "name": "OwnableUnauthorizedAccount",
      "type": "error"
    },
    {
      "anonymous": false,
      "inputs": [
        {
          "indexed": true,
          "internalType": "address",
          "name": "owner",
          "type": "address"
        },
        {
          "indexed": true,
          "internalType": "address",
          "name": "approved",
          "type": "address"
        },
        {
          "indexed": true,
          "internalType": "uint256",
          "name": "tokenId",
          "type": "uint256"
        }
      ],
      "name": "Approval",
      "type": "event"
    },
    {
      "anonymous": false,
      "inputs": [
        {
          "indexed": true,
          "internalType": "address",
          "name": "owner",
          "type": "address"
        },
        {
          "indexed": true,
          "internalType": "address",
          "name": "operator",
          "type": "address"
        },
        {
          "indexed": false,
          "internalType": "bool",
          "name": "approved",
          "type": "bool"
        }
      ],
      "name": "ApprovalForAll",
      "type": "event"
    },
    {
      "anonymous": false,
      "inputs": [
        {
          "indexed": true,
          "internalType": "address",
          "name": "previousOwner",
          "type": "address"
        },
        {
          "indexed": true,
          "internalType": "address",
          "name": "newOwner",
          "type": "address"
        }
      ],
      "name": "OwnershipTransferred",
      "type": "event"
    },
    {
      "anonymous": false,
      "inputs": [
        {
          "indexed": true,
          "internalType": "address",
          "name": "from",
          "type": "address"
        },
        {
          "indexed": true,
          "internalType": "address",
          "name": "to",
          "type": "address"
        },
        {
          "indexed": true,
          "internalType": "uint256",
          "name": "tokenId",
          "type": "uint256"
        }
      ],
      "name": "Transfer",
      "type": "event"
    },
    {
      "inputs": [
        {
          "internalType": "address",
          "name": "to",
          "type": "address"
        },
        {
          "internalType": "uint256",
          "name": "tokenId",
          "type": "uint256"
        }
      ],
      "name": "approve",
      "outputs": [],
      "stateMutability": "nonpayable",
      "type": "function"
    },
    {
      "inputs": [
        {
          "internalType": "address",
          "name": "owner",
          "type": "address"
        }
      ],
      "name": "balanceOf",
      "outputs": [
        {
          "internalType": "uint256",
          "name": "",
          "type": "uint256"
        }
      ],
      "stateMutability": "view",
      "type": "function"
    },
    {
      "inputs": [
        {
          "internalType": "uint256",
          "name": "tokenId",
          "type": "uint256"
        }
      ],
      "name": "getApproved",
      "outputs": [
        {
          "internalType": "address",
          "name": "",
          "type": "address"
        }
      ],
      "stateMutability": "view",
      "type": "function"
    },
    {
      "inputs": [
        {
          "internalType": "address",
          "name": "owner",
          "type": "address"
        },
        {
          "internalType": "address",
          "name": "operator",
          "type": "address"
        }
      ],
      "name": "isApprovedForAll",
      "outputs": [
        {
          "internalType": "bool",
          "name": "",
          "type": "bool"
        }
      ],
      "stateMutability": "view",
      "type": "function"
    },
    {
      "inputs": [
        {
          "internalType": "address",
          "name": "to",
          "type": "address"
        }
      ],
      "name": "mintNFT",
      "outputs": [],
      "stateMutability": "nonpayable",
      "type": "function"
    },
    {
      "inputs": [],
      "name": "name",
      "outputs": [
        {
          "internalType": "string",
          "name": "",
          "type": "string"
        }
      ],
      "stateMutability": "view",
      "type": "function"
    },
    {
      "inputs": [],
      "name": "owner",
      "outputs": [
        {
          "internalType": "address",
          "name": "",
          "type": "address"
        }
      ],
      "stateMutability": "view",
      "type": "function"
    },
    {
      "inputs": [
        {
          "internalType": "uint256",
          "name": "tokenId",
          "type": "uint256"
        }
      ],
      "name": "ownerOf",
      "outputs": [
        {
          "internalType": "address",
          "name": "",
          "type": "address"
        }
      ],
      "stateMutability": "view",
      "type": "function"
    },
    {
      "inputs": [],
      "name": "renounceOwnership",
      "outputs": [],
      "stateMutability": "nonpayable",
      "type": "function"
    },
    {
      "inputs": [
        {
          "internalType": "address",
          "name": "from",
          "type": "address"
        },
        {
          "internalType": "address",
          "name": "to",
          "type": "address"
        },
        {
          "internalType": "uint256",
          "name": "tokenId",
          "type": "uint256"
        }
      ],
      "name": "safeTransferFrom",
      "outputs": [],
      "stateMutability": "nonpayable",
      "type": "function"
    },
    {
      "inputs": [
        {
          "internalType": "address",
          "name": "from",
          "type": "address"
        },
        {
          "internalType": "address",
          "name": "to",
          "type": "address"
        },
        {
          "internalType": "uint256",
          "name": "tokenId",
          "type": "uint256"
        },
        {
          "internalType": "bytes",
          "name": "data",
          "type": "bytes"
        }
      ],
      "name": "safeTransferFrom",
      "outputs": [],
      "stateMutability": "nonpayable",
      "type": "function"
    },
    {
      "inputs": [
        {
          "internalType": "address",
          "name": "operator",
          "type": "address"
        },
        {
          "internalType": "bool",
          "name": "approved",
          "type": "bool"
        }
      ],
      "name": "setApprovalForAll",
      "outputs": [],
      "stateMutability": "nonpayable",
      "type": "function"
    },
    {
      "inputs": [
        {
          "internalType": "bytes4",
          "name": "interfaceId",
          "type": "bytes4"
        }
      ],
      "name": "supportsInterface",
      "outputs": [
        {
          "internalType": "bool",
          "name": "",
          "type": "bool"
        }
      ],
      "stateMutability": "view",
      "type": "function"
    },
    {
      "inputs": [],
      "name": "symbol",
      "outputs": [
        {
          "internalType": "string",
          "name": "",
          "type": "string"
        }
      ],
      "stateMutability": "view",
      "type": "function"
    },
    {
      "inputs": [
        {
          "internalType": "uint256",
          "name": "tokenId",
          "type": "uint256"
        }
      ],
      "name": "tokenURI",
      "outputs": [
        {
          "internalType": "string",
          "name": "",
          "type": "string"
        }
      ],
      "stateMutability": "view",
      "type": "function"
    },
    {
      "inputs": [
        {
          "internalType": "address",
          "name": "from",
          "type": "address"
        },
        {
          "internalType": "address",
          "name": "to",
          "type": "address"
        },
        {
          "internalType": "uint256",
          "name": "tokenId",
          "type": "uint256"
        }
      ],
      "name": "transferFrom",
      "outputs": [],
      "stateMutability": "nonpayable",
      "type": "function"
    },
    {
      "inputs": [
        {
          "internalType": "address",
          "name": "newOwner",
          "type": "address"
        }
      ],
      "name": "transferOwnership",
      "outputs": [],
      "stateMutability": "nonpayable",
      "type": "function"
    }
  ],
  "bytecode": "0x60806040523480156200001157600080fd5b506040516200286138038062002861833981810160405281019062000037919062000350565b33828281600090816200004b919062000620565b5080600190816200005d919062000620565b505050600073ffffffffffffffffffffffffffffffffffffffff168173ffffffffffffffffffffffffffffffffffffffff1603620000d55760006040517f1e4fbdf7000000000000000000000000000000000000000000000000000000008152600401620000cc91906200074c565b60405180910390fd5b620000e681620000f760201b60201c565b506000600781905550505062000769565b6000600660009054906101000a900473ffffffffffffffffffffffffffffffffffffffff16905081600660006101000a81548173ffffffffffffffffffffffffffffffffffffffff021916908373ffffffffffffffffffffffffffffffffffffffff1602179055508173ffffffffffffffffffffffffffffffffffffffff168173ffffffffffffffffffffffffffffffffffffffff167f8be0079c531659141344cd1fd0a4f28419497f9722a3daafe3b4186f6b6457e060405160405180910390a35050565b6000604051905090565b600080fd5b600080fd5b600080fd5b600080fd5b6000601f19601f8301169050919050565b7f4e487b7100000000000000000000000000000000000000000000000000000000600052604160045260246000fd5b6200022682620001db565b810181811067ffffffffffffffff82111715620002485762000247620001ec565b5b80604052505050565b60006200025d620001bd565b90506200026b82826200021b565b919050565b600067ffffffffffffffff8211156200028e576200028d620001ec565b5b6200029982620001db565b9050602081019050919050565b60005b83811015620002c6578082015181840152602081019050620002a9565b60008484015250505050565b6000620002e9620002e38462000270565b62000251565b905082815260208101848484011115620003085762000307620001d6565b5b62000315848285620002a6565b509392505050565b600082601f830112620003355762000334620001d1565b5b815162000347848260208601620002d2565b91505092915050565b600080604083850312156200036a5762000369620001c7565b5b600083015167ffffffffffffffff8111156200038b576200038a620001cc565b5b62000399858286016200031d565b925050602083015167ffffffffffffffff811115620003bd57620003bc620001cc565b5b620003cb858286016200031d565b9150509250929050565b600081519050919050565b7f4e487b7100000000000000000000000000000000000000000000000000000000600052602260045260246000fd5b600060028204905060018216806200042857607f821691505b6020821081036200043e576200043d620003e0565b5b50919050565b60008190508160005260206000209050919050565b60006020601f8301049050919050565b600082821b905092915050565b600060088302620004a87fffffffffffffffffffffffffffffffffffffffffffffffffffffffffffffffff8262000469565b620004b4868362000469565b95508019841693508086168417925050509392505050565b6000819050919050565b6000819050919050565b600062000501620004fb620004f584620004cc565b620004d6565b620004cc565b9050919050565b6000819050919050565b6200051d83620004e0565b620005356200052c8262000508565b84845462000476565b825550505050565b600090565b6200054c6200053d565b6200055981848462000512565b505050565b5b8181101562000581576200057560008262000542565b6001810190506200055f565b5050565b601f821115620005d0576200059a8162000444565b620005a58462000459565b81016020851015620005b5578190505b620005cd620005c48562000459565b8301826200055e565b50505b505050565b600082821c905092915050565b6000620005f560001984600802620005d5565b1980831691505092915050565b6000620006108383620005e2565b9150826002028217905092915050565b6200062b82620003d5565b67ffffffffffffffff811115620006475762000646620001ec565b5b6200065382546200040f565b6200066082828562000585565b600060209050601f83116001811462000698576000841562000683578287015190505b6200068f858262000602565b865550620006ff565b601f198416620006a88662000444565b60005b82811015620006d257848901518255600182019150602085019450602081019050620006ab565b86831015620006f25784890151620006ee601f891682620005e2565b8355505b6001600288020188555050505b505050505050565b600073ffffffffffffffffffffffffffffffffffffffff82169050919050565b6000620007348262000707565b9050919050565b620007468162000727565b82525050565b60006020820190506200076360008301846200073b565b92915050565b6120e880620007796000396000f3fe608060405234801561001057600080fd5b506004361061010b5760003560e01c806370a08231116100a2578063a22cb46511610071578063a22cb465146102a4578063b88d4fde146102c0578063c87b56dd146102dc578063e985e9c51461030c578063f2fde38b1461033c5761010b565b806370a082311461022e578063715018a61461025e5780638da5cb5b1461026857806395d89b41146102865761010b565b806323b872dd116100de57806323b872dd146101aa57806342842e0e146101c657806354ba0f27146101e25780636352211e146101fe5761010b565b806301ffc9a71461011057806306fdde0314610140578063081812fc1461015e578063095ea7b31461018e575b600080fd5b61012a600480360381019061012591906118cf565b610358565b6040516101379190611917565b60405180910390f35b61014861043a565b60405161015591906119c2565b60405180910390f35b61017860048036038101906101739190611a1a565b6104cc565b6040516101859190611a88565b60405180910390f35b6101a860048036038101906101a39190611acf565b6104e8565b005b6101c460048036038101906101bf9190611b0f565b6104fe565b005b6101e060048036038101906101db9190611b0f565b610600565b005b6101fc60048036038101906101f79190611b62565b610620565b005b61021860048036038101906102139190611a1a565b610649565b6040516102259190611a88565b60405180910390f35b61024860048036038101906102439190611b62565b61065b565b6040516102559190611b9e565b60405180910390f35b610266610715565b005b610270610729565b60405161027d9190611a88565b60405180910390f35b61028e610753565b60405161029b91906119c2565b60405180910390f35b6102be60048036038101906102b99190611be5565b6107e5565b005b6102da60048036038101906102d59190611d5a565b6107fb565b005b6102f660048036038101906102f19190611a1a565b610818565b60405161030391906119c2565b60405180910390f35b61032660048036038101906103219190611ddd565b610881565b6040516103339190611917565b60405180910390f35b61035660048036038101906103519190611b62565b610915565b005b60007f80ac58cd000000000000000000000000000000000000000000000000000000007bffffffffffffffffffffffffffffffffffffffffffffffffffffffff1916827bffffffffffffffffffffffffffffffffffffffffffffffffffffffff1916148061042357507f5b5e139f000000000000000000000000000000000000000000000000000000007bffffffffffffffffffffffffffffffffffffffffffffffffffffffff1916827bffffffffffffffffffffffffffffffffffffffffffffffffffffffff1916145b8061043357506104328261099b565b5b9050919050565b60606000805461044990611e4c565b80601f016020809104026020016040519081016040528092919081815260200182805461047590611e4c565b80156104c25780601f10610497576101008083540402835291602001916104c2565b820191906000526020600020905b8154815290600101906020018083116104a557829003601f168201915b5050505050905090565b60006104d782610a05565b506104e182610a8d565b9050919050565b6104fa82826104f5610aca565b610ad2565b5050565b600073ffffffffffffffffffffffffffffffffffffffff168273ffffffffffffffffffffffffffffffffffffffff16036105705760006040517f64a0ae920000000000000000000000000000000000000000000000000000000081526004016105679190611a88565b60405180910390fd5b6000610584838361057f610aca565b610ae4565b90508373ffffffffffffffffffffffffffffffffffffffff168173ffffffffffffffffffffffffffffffffffffffff16146105fa578382826040517f64283d7b0000000000000000000000000000000000000000000000000000000081526004016105f193929190611e7d565b60405180910390fd5b50505050565b61061b838383604051806020016040528060008152506107fb565b505050565b6001600760008282546106339190611ee3565b9250508190555061064681600754610cfe565b50565b600061065482610a05565b9050919050565b60008073ffffffffffffffffffffffffffffffffffffffff168273ffffffffffffffffffffffffffffffffffffffff16036106ce5760006040517f89c62b640000000000000000000000000000000000000000000000000000000081526004016106c59190611a88565b60405180910390fd5b600360008373ffffffffffffffffffffffffffffffffffffffff1673ffffffffffffffffffffffffffffffffffffffff168152602001908152602001600020549050919050565b61071d610d1c565b6107276000610da3565b565b6000600660009054906101000a900473ffffffffffffffffffffffffffffffffffffffff16905090565b60606001805461076290611e4c565b80601f016020809104026020016040519081016040528092919081815260200182805461078e90611e4c565b80156107db5780601f106107b0576101008083540402835291602001916107db565b820191906000526020600020905b8154815290600101906020018083116107be57829003601f168201915b5050505050905090565b6107f76107f0610aca565b8383610e69565b5050565b6108068484846104fe565b61081284848484610fd8565b50505050565b606061082382610a05565b50600061082e61118f565b9050600081511161084e5760405180602001604052806000815250610879565b80610858846111a6565b604051602001610869929190611f53565b6040516020818303038152906040525b915050919050565b6000600560008473ffffffffffffffffffffffffffffffffffffffff1673ffffffffffffffffffffffffffffffffffffffff16815260200190815260200160002060008373ffffffffffffffffffffffffffffffffffffffff1673ffffffffffffffffffffffffffffffffffffffff16815260200190815260200160002060009054906101000a900460ff16905092915050565b61091d610d1c565b600073ffffffffffffffffffffffffffffffffffffffff168173ffffffffffffffffffffffffffffffffffffffff160361098f5760006040517f1e4fbdf70000000000000000000000000000000000000000000000000000000081526004016109869190611a88565b60405180910390fd5b61099881610da3565b50565b60007f01ffc9a7000000000000000000000000000000000000000000000000000000007bffffffffffffffffffffffffffffffffffffffffffffffffffffffff1916827bffffffffffffffffffffffffffffffffffffffffffffffffffffffff1916149050919050565b600080610a1183611274565b9050600073ffffffffffffffffffffffffffffffffffffffff168173ffffffffffffffffffffffffffffffffffffffff1603610a8457826040517f7e273289000000000000000000000000000000000000000000000000000000008152600401610a7b9190611b9e565b60405180910390fd5b80915050919050565b60006004600083815260200190815260200160002060009054906101000a900473ffffffffffffffffffffffffffffffffffffffff169050919050565b600033905090565b610adf83838360016112b1565b505050565b600080610af084611274565b9050600073ffffffffffffffffffffffffffffffffffffffff168373ffffffffffffffffffffffffffffffffffffffff1614610b3257610b31818486611476565b5b600073ffffffffffffffffffffffffffffffffffffffff168173ffffffffffffffffffffffffffffffffffffffff1614610bc357610b746000856000806112b1565b6001600360008373ffffffffffffffffffffffffffffffffffffffff1673ffffffffffffffffffffffffffffffffffffffff168152602001908152602001600020600082825403925050819055505b600073ffffffffffffffffffffffffffffffffffffffff168573ffffffffffffffffffffffffffffffffffffffff1614610c46576001600360008773ffffffffffffffffffffffffffffffffffffffff1673ffffffffffffffffffffffffffffffffffffffff168152602001908152602001600020600082825401925050819055505b846002600086815260200190815260200160002060006101000a81548173ffffffffffffffffffffffffffffffffffffffff021916908373ffffffffffffffffffffffffffffffffffffffff160217905550838573ffffffffffffffffffffffffffffffffffffffff168273ffffffffffffffffffffffffffffffffffffffff167fddf252ad1be2c89b69c2b068fc378daa952ba7f163c4a11628f55a4df523b3ef60405160405180910390a4809150509392505050565b610d1882826040518060200160405280600081525061153a565b5050565b610d24610aca565b73ffffffffffffffffffffffffffffffffffffffff16610d42610729565b73ffffffffffffffffffffffffffffffffffffffff1614610da157610d65610aca565b6040517f118cdaa7000000000000000000000000000000000000000000000000000000008152600401610d989190611a88565b60405180910390fd5b565b6000600660009054906101000a900473ffffffffffffffffffffffffffffffffffffffff16905081600660006101000a81548173ffffffffffffffffffffffffffffffffffffffff021916908373ffffffffffffffffffffffffffffffffffffffff1602179055508173ffffffffffffffffffffffffffffffffffffffff168173ffffffffffffffffffffffffffffffffffffffff167f8be0079c531659141344cd1fd0a4f28419497f9722a3daafe3b4186f6b6457e060405160405180910390a35050565b600073ffffffffffffffffffffffffffffffffffffffff168273ffffffffffffffffffffffffffffffffffffffff1603610eda57816040517f5b08ba18000000000000000000000000000000000000000000000000000000008152600401610ed19190611a88565b60405180910390fd5b80600560008573ffffffffffffffffffffffffffffffffffffffff1673ffffffffffffffffffffffffffffffffffffffff16815260200190815260200160002060008473ffffffffffffffffffffffffffffffffffffffff1673ffffffffffffffffffffffffffffffffffffffff16815260200190815260200160002060006101000a81548160ff0219169083151502179055508173ffffffffffffffffffffffffffffffffffffffff168373ffffffffffffffffffffffffffffffffffffffff167f17307eab39ab6107e8899845ad3d59bd9653f200f220920489ca2b5937696c3183604051610fcb9190611917565b60405180910390a3505050565b60008373ffffffffffffffffffffffffffffffffffffffff163b1115611189578273ffffffffffffffffffffffffffffffffffffffff1663150b7a0261101c610aca565b8685856040518563ffffffff1660e01b815260040161103e9493929190611fcc565b6020604051808303816000875af192505050801561107a57506040513d601f19601f82011682018060405250810190611077919061202d565b60015b6110fe573d80600081146110aa576040519150601f19603f3d011682016040523d82523d6000602084013e6110af565b606091505b5060008151036110f657836040517f64a0ae920000000000000000000000000000000000000000000000000000000081526004016110ed9190611a88565b60405180910390fd5b805181602001fd5b63150b7a0260e01b7bffffffffffffffffffffffffffffffffffffffffffffffffffffffff1916817bffffffffffffffffffffffffffffffffffffffffffffffffffffffff19161461118757836040517f64a0ae9200000000000000000000000000000000000000000000000000000000815260040161117e9190611a88565b60405180910390fd5b505b50505050565b606060405180602001604052806000815250905090565b6060600060016111b584611556565b01905060008167ffffffffffffffff8111156111d4576111d3611c2f565b5b6040519080825280601f01601f1916602001820160405280156112065781602001600182028036833780820191505090505b509050600082602001820190505b600115611269578080600190039150507f3031323334353637383961626364656600000000000000000000000000000000600a86061a8153600a858161125d5761125c61205a565b5b04945060008503611214575b819350505050919050565b60006002600083815260200190815260200160002060009054906101000a900473ffffffffffffffffffffffffffffffffffffffff169050919050565b80806112ea5750600073ffffffffffffffffffffffffffffffffffffffff168273ffffffffffffffffffffffffffffffffffffffff1614155b1561141e5760006112fa84610a05565b9050600073ffffffffffffffffffffffffffffffffffffffff168373ffffffffffffffffffffffffffffffffffffffff161415801561136557508273ffffffffffffffffffffffffffffffffffffffff168173ffffffffffffffffffffffffffffffffffffffff1614155b801561137857506113768184610881565b155b156113ba57826040517fa9fbf51f0000000000000000000000000000000000000000000000000000000081526004016113b19190611a88565b60405180910390fd5b811561141c57838573ffffffffffffffffffffffffffffffffffffffff168273ffffffffffffffffffffffffffffffffffffffff167f8c5be1e5ebec7d5bd14f71427d1e84f3dd0314c0f7b2291e5b200ac8c7c3b92560405160405180910390a45b505b836004600085815260200190815260200160002060006101000a81548173ffffffffffffffffffffffffffffffffffffffff021916908373ffffffffffffffffffffffffffffffffffffffff16021790555050505050565b6114818383836116a9565b61153557600073ffffffffffffffffffffffffffffffffffffffff168373ffffffffffffffffffffffffffffffffffffffff16036114f657806040517f7e2732890000000000000000000000000000000000000000000000000000000081526004016114ed9190611b9e565b60405180910390fd5b81816040517f177e802f00000000000000000000000000000000000000000000000000000000815260040161152c929190612089565b60405180910390fd5b505050565b611544838361176a565b6115516000848484610fd8565b505050565b600080600090507a184f03e93ff9f4daa797ed6e38ed64bf6a1f01000000000000000083106115b4577a184f03e93ff9f4daa797ed6e38ed64bf6a1f01000000000000000083816115aa576115a961205a565b5b0492506040810190505b6d04ee2d6d415b85acef810000000083106115f1576d04ee2d6d415b85acef810000000083816115e7576115e661205a565b5b0492506020810190505b662386f26fc10000831061162057662386f26fc1000083816116165761161561205a565b5b0492506010810190505b6305f5e1008310611649576305f5e100838161163f5761163e61205a565b5b0492506008810190505b612710831061166e5761271083816116645761166361205a565b5b0492506004810190505b6064831061169157606483816116875761168661205a565b5b0492506002810190505b600a83106116a0576001810190505b80915050919050565b60008073ffffffffffffffffffffffffffffffffffffffff168373ffffffffffffffffffffffffffffffffffffffff161415801561176157508273ffffffffffffffffffffffffffffffffffffffff168473ffffffffffffffffffffffffffffffffffffffff16148061172257506117218484610881565b5b8061176057508273ffffffffffffffffffffffffffffffffffffffff1661174883610a8d565b73ffffffffffffffffffffffffffffffffffffffff16145b5b90509392505050565b600073ffffffffffffffffffffffffffffffffffffffff168273ffffffffffffffffffffffffffffffffffffffff16036117dc5760006040517f64a0ae920000000000000000000000000000000000000000000000000000000081526004016117d39190611a88565b60405180910390fd5b60006117ea83836000610ae4565b9050600073ffffffffffffffffffffffffffffffffffffffff168173ffffffffffffffffffffffffffffffffffffffff161461185e5760006040517f73c6ac6e0000000000000000000000000000000000000000000000000000000081526004016118559190611a88565b60405180910390fd5b505050565b6000604051905090565b600080fd5b600080fd5b60007fffffffff0000000000000000000000000000000000000000000000000000000082169050919050565b6118ac81611877565b81146118b757600080fd5b50565b6000813590506118c9816118a3565b92915050565b6000602082840312156118e5576118e461186d565b5b60006118f3848285016118ba565b91505092915050565b60008115159050919050565b611911816118fc565b82525050565b600060208201905061192c6000830184611908565b92915050565b600081519050919050565b600082825260208201905092915050565b60005b8381101561196c578082015181840152602081019050611951565b60008484015250505050565b6000601f19601f8301169050919050565b600061199482611932565b61199e818561193d565b93506119ae81856020860161194e565b6119b781611978565b840191505092915050565b600060208201905081810360008301526119dc8184611989565b905092915050565b6000819050919050565b6119f7816119e4565b8114611a0257600080fd5b50565b600081359050611a14816119ee565b92915050565b600060208284031215611a3057611a2f61186d565b5b6000611a3e84828501611a05565b91505092915050565b600073ffffffffffffffffffffffffffffffffffffffff82169050919050565b6000611a7282611a47565b9050919050565b611a8281611a67565b82525050565b6000602082019050611a9d6000830184611a79565b92915050565b611aac81611a67565b8114611ab757600080fd5b50565b600081359050611ac981611aa3565b92915050565b60008060408385031215611ae657611ae561186d565b5b6000611af485828601611aba565b9250506020611b0585828601611a05565b9150509250929050565b600080600060608486031215611b2857611b2761186d565b5b6000611b3686828701611aba565b9350506020611b4786828701611aba565b9250506040611b5886828701611a05565b9150509250925092565b600060208284031215611b7857611b7761186d565b5b6000611b8684828501611aba565b91505092915050565b611b98816119e4565b82525050565b6000602082019050611bb36000830184611b8f565b92915050565b611bc2816118fc565b8114611bcd57600080fd5b50565b600081359050611bdf81611bb9565b92915050565b60008060408385031215611bfc57611bfb61186d565b5b6000611c0a85828601611aba565b9250506020611c1b85828601611bd0565b9150509250929050565b600080fd5b600080fd5b7f4e487b7100000000000000000000000000000000000000000000000000000000600052604160045260246000fd5b611c6782611978565b810181811067ffffffffffffffff82111715611c8657611c85611c2f565b5b80604052505050565b6000611c99611863565b9050611ca58282611c5e565b919050565b600067ffffffffffffffff821115611cc557611cc4611c2f565b5b611cce82611978565b9050602081019050919050565b82818337600083830152505050565b6000611cfd611cf884611caa565b611c8f565b905082815260208101848484011115611d1957611d18611c2a565b5b611d24848285611cdb565b509392505050565b600082601f830112611d4157611d40611c25565b5b8135611d51848260208601611cea565b91505092915050565b60008060008060808587031215611d7457611d7361186d565b5b6000611d8287828801611aba565b9450506020611d9387828801611aba565b9350506040611da487828801611a05565b925050606085013567ffffffffffffffff811115611dc557611dc4611872565b5b611dd187828801611d2c565b91505092959194509250565b60008060408385031215611df457611df361186d565b5b6000611e0285828601611aba565b9250506020611e1385828601611aba565b9150509250929050565b7f4e487b7100000000000000000000000000000000000000000000000000000000600052602260045260246000fd5b60006002820490506001821680611e6457607f821691505b602082108103611e7757611e76611e1d565b5b50919050565b6000606082019050611e926000830186611a79565b611e9f6020830185611b8f565b611eac6040830184611a79565b949350505050565b7f4e487b7100000000000000000000000000000000000000000000000000000000600052601160045260246000fd5b6000611eee826119e4565b9150611ef9836119e4565b9250828201905080821115611f1157611f10611eb4565b5b92915050565b600081905092915050565b6000611f2d82611932565b611f378185611f17565b9350611f4781856020860161194e565b80840191505092915050565b6000611f5f8285611f22565b9150611f6b8284611f22565b91508190509392505050565b600081519050919050565b600082825260208201905092915050565b6000611f9e82611f77565b611fa88185611f82565b9350611fb881856020860161194e565b611fc181611978565b840191505092915050565b6000608082019050611fe16000830187611a79565b611fee6020830186611a79565b611ffb6040830185611b8f565b818103606083015261200d8184611f93565b905095945050505050565b600081519050612027816118a3565b92915050565b6000602082840312156120435761204261186d565b5b600061205184828501612018565b91505092915050565b7f4e487b7100000000000000000000000000000000000000000000000000000000600052601260045260246000fd5b600060408201905061209e6000830185611a79565b6120ab6020830184611b8f565b939250505056fea2646970667358221220cdedf5986da66d199dbc35b97253f3305249891ac13cbadf99dd3f268434770f64736f6c63430008140033",
  "linkReferences": {},
  "deployedLinkReferences": {}
}