{
  "_format": "hh-sol-artifact-1",
  "contractName": "MyToken",
  "sourceName": "contracts/MyToken.sol",
  "abi": [
    {
      "inputs": [
        {
          "internalType": "string",
          "name": "name",
          "type": "string"
        },
        {
          "internalType": "string",
          "name": "symbol",
          "type": "string"
        }
      ],
      "stateMutability": "nonpayable",
      "type": "constructor"
    },
    {
      "inputs": [
        {
          "internalType": "address",
          "name": "spender",
          "type": "address"
        },
        {
          "internalType": "uint256",
          "name": "allowance",
          "type": "uint256"
        },
        {
          "internalType": "uint256",
          "name": "needed",
          "type": "uint256"
        }
      ],
      "name": "ERC20InsufficientAllowance",
      "type": "error"
    },
    {
      "inputs": [
        {
          "internalType": "address",
          "name": "sender",
          "type": "address"
        },
        {
          "internalType": "uint256",
          "name": "balance",
          "type": "uint256"
        },
        {
          "internalType": "uint256",
          "name": "needed",
          "type": "uint256"
        }
      ],
      "name": "ERC20InsufficientBalance",
      "type": "error"
    },
    {
      "inputs": [
        {
          "internalType": "address",
          "name": "approver",
          "type": "address"
        }
      ],
      "name": "ERC20InvalidApprover",
      "type": "error"
    },
    {
      "inputs": [
        {
          "internalType": "address",
          "name": "receiver",
          "type": "address"
        }
      ],
      "name": "ERC20InvalidReceiver",
      "type": "error"
    },
    {
      "inputs": [
        {
          "internalType": "address",
          "name": "sender",
          "type": "address"
        }
      ],
      "name": "ERC20InvalidSender",
      "type": "error"
    },
    {
      "inputs": [
        {
          "internalType": "address",
          "name": "spender",
          "type": "address"
        }
      ],
      "name": "ERC20InvalidSpender",
      "type": "error"
    },
    {
      "inputs": [
        {
          "internalType": "address",
          "name": "owner",
          "type": "address"
        }
      ],
      "name": "OwnableInvalidOwner",
      "type": "error"
    },
    {
      "inputs": [
        {
          "internalType": "address",
          "name": "account",
          "type": "address"
        }
      ],
      "name": "OwnableUnauthorizedAccount",
      "type": "error"
    },
    {
      "anonymous": false,
      "inputs": [
        {
          "indexed": true,
          "internalType": "address",
          "name": "owner",
          "type": "address"
        },
        {
          "indexed": true,
          "internalType": "address",
          "name": "spender",
          "type": "address"
        },
        {
          "indexed": false,
          "internalType": "uint256",
          "name": "value",
          "type": "uint256"
        }
      ],
      "name": "Approval",
      "type": "event"
    },
    {
      "anonymous": false,
      "inputs": [
        {
          "indexed": true,
          "internalType": "address",
          "name": "previousOwner",
          "type": "address"
        },
        {
          "indexed": true,
          "internalType": "address",
          "name": "newOwner",
          "type": "address"
        }
      ],
      "name": "OwnershipTransferred",
      "type": "event"
    },
    {
      "anonymous": false,
      "inputs": [
        {
          "indexed": true,
          "internalType": "address",
          "name": "from",
          "type": "address"
        },
        {
          "indexed": true,
          "internalType": "address",
          "name": "to",
          "type": "address"
        },
        {
          "indexed": false,
          "internalType": "uint256",
          "name": "value",
          "type": "uint256"
        }
      ],
      "name": "Transfer",
      "type": "event"
    },
    {
      "inputs": [],
      "name": "_totalSupply",
      "outputs": [
        {
          "internalType": "uint256",
          "name": "",
          "type": "uint256"
        }
      ],
      "stateMutability": "view",
      "type": "function"
    },
    {
      "inputs": [
        {
          "internalType": "address",
          "name": "owner",
          "type": "address"
        },
        {
          "internalType": "address",
          "name": "spender",
          "type": "address"
        }
      ],
      "name": "allowance",
      "outputs": [
        {
          "internalType": "uint256",
          "name": "",
          "type": "uint256"
        }
      ],
      "stateMutability": "view",
      "type": "function"
    },
    {
      "inputs": [
        {
          "internalType": "address",
          "name": "spender",
          "type": "address"
        },
        {
          "internalType": "uint256",
          "name": "value",
          "type": "uint256"
        }
      ],
      "name": "approve",
      "outputs": [
        {
          "internalType": "bool",
          "name": "",
          "type": "bool"
        }
      ],
      "stateMutability": "nonpayable",
      "type": "function"
    },
    {
      "inputs": [
        {
          "internalType": "address",
          "name": "account",
          "type": "address"
        }
      ],
      "name": "balanceOf",
      "outputs": [
        {
          "internalType": "uint256",
          "name": "",
          "type": "uint256"
        }
      ],
      "stateMutability": "view",
      "type": "function"
    },
    {
      "inputs": [],
      "name": "decimals",
      "outputs": [
        {
          "internalType": "uint8",
          "name": "",
          "type": "uint8"
        }
      ],
      "stateMutability": "view",
      "type": "function"
    },
    {
      "inputs": [
        {
          "internalType": "address",
          "name": "to",
          "type": "address"
        },
        {
          "internalType": "uint256",
          "name": "amount",
          "type": "uint256"
        }
      ],
      "name": "mint",
      "outputs": [],
      "stateMutability": "nonpayable",
      "type": "function"
    },
    {
      "inputs": [],
      "name": "name",
      "outputs": [
        {
          "internalType": "string",
          "name": "",
          "type": "string"
        }
      ],
      "stateMutability": "view",
      "type": "function"
    },
    {
      "inputs": [],
      "name": "owner",
      "outputs": [
        {
          "internalType": "address",
          "name": "",
          "type": "address"
        }
      ],
      "stateMutability": "view",
      "type": "function"
    },
    {
      "inputs": [],
      "name": "renounceOwnership",
      "outputs": [],
      "stateMutability": "nonpayable",
      "type": "function"
    },
    {
      "inputs": [],
      "name": "symbol",
      "outputs": [
        {
          "internalType": "string",
          "name": "",
          "type": "string"
        }
      ],
      "stateMutability": "view",
      "type": "function"
    },
    {
      "inputs": [],
      "name": "totalSupply",
      "outputs": [
        {
          "internalType": "uint256",
          "name": "",
          "type": "uint256"
        }
      ],
      "stateMutability": "view",
      "type": "function"
    },
    {
      "inputs": [
        {
          "internalType": "address",
          "name": "to",
          "type": "address"
        },
        {
          "internalType": "uint256",
          "name": "value",
          "type": "uint256"
        }
      ],
      "name": "transfer",
      "outputs": [
        {
          "internalType": "bool",
          "name": "",
          "type": "bool"
        }
      ],
      "stateMutability": "nonpayable",
      "type": "function"
    },
    {
      "inputs": [
        {
          "internalType": "address",
          "name": "from",
          "type": "address"
        },
        {
          "internalType": "address",
          "name": "to",
          "type": "address"
        },
        {
          "internalType": "uint256",
          "name": "value",
          "type": "uint256"
        }
      ],
      "name": "transferFrom",
      "outputs": [
        {
          "internalType": "bool",
          "name": "",
          "type": "bool"
        }
      ],
      "stateMutability": "nonpayable",
      "type": "function"
    },
    {
      "inputs": [
        {
          "internalType": "address",
          "name": "newOwner",
          "type": "address"
        }
      ],
      "name": "transferOwnership",
      "outputs": [],
      "stateMutability": "nonpayable",
      "type": "function"
    }
  ],
  "bytecode": "0x608060405269021e19e0c9bab24000006006553480156200001f57600080fd5b506040516200195838038062001958833981810160405281019062000045919062000356565b338282816003908162000059919062000626565b5080600490816200006b919062000626565b505050600073ffffffffffffffffffffffffffffffffffffffff168173ffffffffffffffffffffffffffffffffffffffff1603620000e35760006040517f1e4fbdf7000000000000000000000000000000000000000000000000000000008152600401620000da919062000752565b60405180910390fd5b620000f481620000fd60201b60201c565b5050506200076f565b6000600560009054906101000a900473ffffffffffffffffffffffffffffffffffffffff16905081600560006101000a81548173ffffffffffffffffffffffffffffffffffffffff021916908373ffffffffffffffffffffffffffffffffffffffff1602179055508173ffffffffffffffffffffffffffffffffffffffff168173ffffffffffffffffffffffffffffffffffffffff167f8be0079c531659141344cd1fd0a4f28419497f9722a3daafe3b4186f6b6457e060405160405180910390a35050565b6000604051905090565b600080fd5b600080fd5b600080fd5b600080fd5b6000601f19601f8301169050919050565b7f4e487b7100000000000000000000000000000000000000000000000000000000600052604160045260246000fd5b6200022c82620001e1565b810181811067ffffffffffffffff821117156200024e576200024d620001f2565b5b80604052505050565b600062000263620001c3565b905062000271828262000221565b919050565b600067ffffffffffffffff821115620002945762000293620001f2565b5b6200029f82620001e1565b9050602081019050919050565b60005b83811015620002cc578082015181840152602081019050620002af565b60008484015250505050565b6000620002ef620002e98462000276565b62000257565b9050828152602081018484840111156200030e576200030d620001dc565b5b6200031b848285620002ac565b509392505050565b600082601f8301126200033b576200033a620001d7565b5b81516200034d848260208601620002d8565b91505092915050565b6000806040838503121562000370576200036f620001cd565b5b600083015167ffffffffffffffff811115620003915762000390620001d2565b5b6200039f8582860162000323565b925050602083015167ffffffffffffffff811115620003c357620003c2620001d2565b5b620003d18582860162000323565b9150509250929050565b600081519050919050565b7f4e487b7100000000000000000000000000000000000000000000000000000000600052602260045260246000fd5b600060028204905060018216806200042e57607f821691505b602082108103620004445762000443620003e6565b5b50919050565b60008190508160005260206000209050919050565b60006020601f8301049050919050565b600082821b905092915050565b600060088302620004ae7fffffffffffffffffffffffffffffffffffffffffffffffffffffffffffffffff826200046f565b620004ba86836200046f565b95508019841693508086168417925050509392505050565b6000819050919050565b6000819050919050565b60006200050762000501620004fb84620004d2565b620004dc565b620004d2565b9050919050565b6000819050919050565b6200052383620004e6565b6200053b62000532826200050e565b8484546200047c565b825550505050565b600090565b6200055262000543565b6200055f81848462000518565b505050565b5b8181101562000587576200057b60008262000548565b60018101905062000565565b5050565b601f821115620005d657620005a0816200044a565b620005ab846200045f565b81016020851015620005bb578190505b620005d3620005ca856200045f565b83018262000564565b50505b505050565b600082821c905092915050565b6000620005fb60001984600802620005db565b1980831691505092915050565b6000620006168383620005e8565b9150826002028217905092915050565b6200063182620003db565b67ffffffffffffffff8111156200064d576200064c620001f2565b5b62000659825462000415565b620006668282856200058b565b600060209050601f8311600181146200069e576000841562000689578287015190505b62000695858262000608565b86555062000705565b601f198416620006ae866200044a565b60005b82811015620006d857848901518255600182019150602085019450602081019050620006b1565b86831015620006f85784890151620006f4601f891682620005e8565b8355505b6001600288020188555050505b505050505050565b600073ffffffffffffffffffffffffffffffffffffffff82169050919050565b60006200073a826200070d565b9050919050565b6200074c816200072d565b82525050565b600060208201905062000769600083018462000741565b92915050565b6111d9806200077f6000396000f3fe608060405234801561001057600080fd5b50600436106100ea5760003560e01c806370a082311161008c57806395d89b411161006657806395d89b411461023b578063a9059cbb14610259578063dd62ed3e14610289578063f2fde38b146102b9576100ea565b806370a08231146101e3578063715018a6146102135780638da5cb5b1461021d576100ea565b806323b872dd116100c857806323b872dd1461015b578063313ce5671461018b5780633eaaf86b146101a957806340c10f19146101c7576100ea565b806306fdde03146100ef578063095ea7b31461010d57806318160ddd1461013d575b600080fd5b6100f76102d5565b6040516101049190610e2d565b60405180910390f35b61012760048036038101906101229190610ee8565b610367565b6040516101349190610f43565b60405180910390f35b61014561038a565b6040516101529190610f6d565b60405180910390f35b61017560048036038101906101709190610f88565b610394565b6040516101829190610f43565b60405180910390f35b6101936103c3565b6040516101a09190610ff7565b60405180910390f35b6101b16103cc565b6040516101be9190610f6d565b60405180910390f35b6101e160048036038101906101dc9190610ee8565b6103d2565b005b6101fd60048036038101906101f89190611012565b6103e8565b60405161020a9190610f6d565b60405180910390f35b61021b610430565b005b610225610444565b604051610232919061104e565b60405180910390f35b61024361046e565b6040516102509190610e2d565b60405180910390f35b610273600480360381019061026e9190610ee8565b610500565b6040516102809190610f43565b60405180910390f35b6102a3600480360381019061029e9190611069565b610523565b6040516102b09190610f6d565b60405180910390f35b6102d360048036038101906102ce9190611012565b6105aa565b005b6060600380546102e4906110d8565b80601f0160208091040260200160405190810160405280929190818152602001828054610310906110d8565b801561035d5780601f106103325761010080835404028352916020019161035d565b820191906000526020600020905b81548152906001019060200180831161034057829003601f168201915b5050505050905090565b600080610372610630565b905061037f818585610638565b600191505092915050565b6000600254905090565b60008061039f610630565b90506103ac85828561064a565b6103b78585856106de565b60019150509392505050565b60006012905090565b60065481565b6103da6107d2565b6103e48282610859565b5050565b60008060008373ffffffffffffffffffffffffffffffffffffffff1673ffffffffffffffffffffffffffffffffffffffff168152602001908152602001600020549050919050565b6104386107d2565b61044260006108db565b565b6000600560009054906101000a900473ffffffffffffffffffffffffffffffffffffffff16905090565b60606004805461047d906110d8565b80601f01602080910402602001604051908101604052809291908181526020018280546104a9906110d8565b80156104f65780601f106104cb576101008083540402835291602001916104f6565b820191906000526020600020905b8154815290600101906020018083116104d957829003601f168201915b5050505050905090565b60008061050b610630565b90506105188185856106de565b600191505092915050565b6000600160008473ffffffffffffffffffffffffffffffffffffffff1673ffffffffffffffffffffffffffffffffffffffff16815260200190815260200160002060008373ffffffffffffffffffffffffffffffffffffffff1673ffffffffffffffffffffffffffffffffffffffff16815260200190815260200160002054905092915050565b6105b26107d2565b600073ffffffffffffffffffffffffffffffffffffffff168173ffffffffffffffffffffffffffffffffffffffff16036106245760006040517f1e4fbdf700000000000000000000000000000000000000000000000000000000815260040161061b919061104e565b60405180910390fd5b61062d816108db565b50565b600033905090565b61064583838360016109a1565b505050565b60006106568484610523565b90507fffffffffffffffffffffffffffffffffffffffffffffffffffffffffffffffff81146106d857818110156106c8578281836040517ffb8f41b20000000000000000000000000000000000000000000000000000000081526004016106bf93929190611109565b60405180910390fd5b6106d7848484840360006109a1565b5b50505050565b600073ffffffffffffffffffffffffffffffffffffffff168373ffffffffffffffffffffffffffffffffffffffff16036107505760006040517f96c6fd1e000000000000000000000000000000000000000000000000000000008152600401610747919061104e565b60405180910390fd5b600073ffffffffffffffffffffffffffffffffffffffff168273ffffffffffffffffffffffffffffffffffffffff16036107c25760006040517fec442f050000000000000000000000000000000000000000000000000000000081526004016107b9919061104e565b60405180910390fd5b6107cd838383610b78565b505050565b6107da610630565b73ffffffffffffffffffffffffffffffffffffffff166107f8610444565b73ffffffffffffffffffffffffffffffffffffffff16146108575761081b610630565b6040517f118cdaa700000000000000000000000000000000000000000000000000000000815260040161084e919061104e565b60405180910390fd5b565b600073ffffffffffffffffffffffffffffffffffffffff168273ffffffffffffffffffffffffffffffffffffffff16036108cb5760006040517fec442f050000000000000000000000000000000000000000000000000000000081526004016108c2919061104e565b60405180910390fd5b6108d760008383610b78565b5050565b6000600560009054906101000a900473ffffffffffffffffffffffffffffffffffffffff16905081600560006101000a81548173ffffffffffffffffffffffffffffffffffffffff021916908373ffffffffffffffffffffffffffffffffffffffff1602179055508173ffffffffffffffffffffffffffffffffffffffff168173ffffffffffffffffffffffffffffffffffffffff167f8be0079c531659141344cd1fd0a4f28419497f9722a3daafe3b4186f6b6457e060405160405180910390a35050565b600073ffffffffffffffffffffffffffffffffffffffff168473ffffffffffffffffffffffffffffffffffffffff1603610a135760006040517fe602df05000000000000000000000000000000000000000000000000000000008152600401610a0a919061104e565b60405180910390fd5b600073ffffffffffffffffffffffffffffffffffffffff168373ffffffffffffffffffffffffffffffffffffffff1603610a855760006040517f94280d62000000000000000000000000000000000000000000000000000000008152600401610a7c919061104e565b60405180910390fd5b81600160008673ffffffffffffffffffffffffffffffffffffffff1673ffffffffffffffffffffffffffffffffffffffff16815260200190815260200160002060008573ffffffffffffffffffffffffffffffffffffffff1673ffffffffffffffffffffffffffffffffffffffff168152602001908152602001600020819055508015610b72578273ffffffffffffffffffffffffffffffffffffffff168473ffffffffffffffffffffffffffffffffffffffff167f8c5be1e5ebec7d5bd14f71427d1e84f3dd0314c0f7b2291e5b200ac8c7c3b92584604051610b699190610f6d565b60405180910390a35b50505050565b600073ffffffffffffffffffffffffffffffffffffffff168373ffffffffffffffffffffffffffffffffffffffff1603610bca578060026000828254610bbe919061116f565b92505081905550610c9d565b60008060008573ffffffffffffffffffffffffffffffffffffffff1673ffffffffffffffffffffffffffffffffffffffff16815260200190815260200160002054905081811015610c56578381836040517fe450d38c000000000000000000000000000000000000000000000000000000008152600401610c4d93929190611109565b60405180910390fd5b8181036000808673ffffffffffffffffffffffffffffffffffffffff1673ffffffffffffffffffffffffffffffffffffffff16815260200190815260200160002081905550505b600073ffffffffffffffffffffffffffffffffffffffff168273ffffffffffffffffffffffffffffffffffffffff1603610ce65780600260008282540392505081905550610d33565b806000808473ffffffffffffffffffffffffffffffffffffffff1673ffffffffffffffffffffffffffffffffffffffff168152602001908152602001600020600082825401925050819055505b8173ffffffffffffffffffffffffffffffffffffffff168373ffffffffffffffffffffffffffffffffffffffff167fddf252ad1be2c89b69c2b068fc378daa952ba7f163c4a11628f55a4df523b3ef83604051610d909190610f6d565b60405180910390a3505050565b600081519050919050565b600082825260208201905092915050565b60005b83811015610dd7578082015181840152602081019050610dbc565b60008484015250505050565b6000601f19601f8301169050919050565b6000610dff82610d9d565b610e098185610da8565b9350610e19818560208601610db9565b610e2281610de3565b840191505092915050565b60006020820190508181036000830152610e478184610df4565b905092915050565b600080fd5b600073ffffffffffffffffffffffffffffffffffffffff82169050919050565b6000610e7f82610e54565b9050919050565b610e8f81610e74565b8114610e9a57600080fd5b50565b600081359050610eac81610e86565b92915050565b6000819050919050565b610ec581610eb2565b8114610ed057600080fd5b50565b600081359050610ee281610ebc565b92915050565b60008060408385031215610eff57610efe610e4f565b5b6000610f0d85828601610e9d565b9250506020610f1e85828601610ed3565b9150509250929050565b60008115159050919050565b610f3d81610f28565b82525050565b6000602082019050610f586000830184610f34565b92915050565b610f6781610eb2565b82525050565b6000602082019050610f826000830184610f5e565b92915050565b600080600060608486031215610fa157610fa0610e4f565b5b6000610faf86828701610e9d565b9350506020610fc086828701610e9d565b9250506040610fd186828701610ed3565b9150509250925092565b600060ff82169050919050565b610ff181610fdb565b82525050565b600060208201905061100c6000830184610fe8565b92915050565b60006020828403121561102857611027610e4f565b5b600061103684828501610e9d565b91505092915050565b61104881610e74565b82525050565b6000602082019050611063600083018461103f565b92915050565b600080604083850312156110805761107f610e4f565b5b600061108e85828601610e9d565b925050602061109f85828601610e9d565b9150509250929050565b7f4e487b7100000000000000000000000000000000000000000000000000000000600052602260045260246000fd5b600060028204905060018216806110f057607f821691505b602082108103611103576111026110a9565b5b50919050565b600060608201905061111e600083018661103f565b61112b6020830185610f5e565b6111386040830184610f5e565b949350505050565b7f4e487b7100000000000000000000000000000000000000000000000000000000600052601160045260246000fd5b600061117a82610eb2565b915061118583610eb2565b925082820190508082111561119d5761119c611140565b5b9291505056fea26469706673582212203c8133ba76bba5ce529a3bf7d429b5317321d1e67a7ce1ac7322eeca277f1fbb64736f6c63430008140033",
  "linkReferences": {},
  "deployedLinkReferences": {}
}